{
  "_format": "hh-sol-artifact-1",
  "contractName": "SupplyChain",
  "sourceName": "contracts/SupplyChain.sol",
  "abi": [
    {
      "anonymous": false,
      "inputs": [
        {
          "indexed": false,
          "internalType": "uint256",
          "name": "id",
          "type": "uint256"
        },
        {
          "indexed": false,
          "internalType": "string",
          "name": "name",
          "type": "string"
        },
        {
          "indexed": false,
          "internalType": "uint256",
          "name": "price",
          "type": "uint256"
        },
        {
          "indexed": false,
          "internalType": "uint256",
          "name": "quantity",
          "type": "uint256"
        },
        {
          "indexed": false,
          "internalType": "address",
          "name": "owner",
          "type": "address"
        }
      ],
      "name": "ItemCreated",
      "type": "event"
    },
    {
      "anonymous": false,
      "inputs": [
        {
          "indexed": false,
          "internalType": "uint256",
          "name": "id",
          "type": "uint256"
        }
      ],
      "name": "ItemDeleted",
      "type": "event"
    },
    {
      "anonymous": false,
      "inputs": [
        {
          "indexed": false,
          "internalType": "uint256",
          "name": "id",
          "type": "uint256"
        },
        {
          "indexed": false,
          "internalType": "uint256",
          "name": "quantity",
          "type": "uint256"
        },
        {
          "indexed": false,
          "internalType": "address",
          "name": "buyer",
          "type": "address"
        }
      ],
      "name": "ItemOrdered",
      "type": "event"
    },
    {
      "anonymous": false,
      "inputs": [
        {
          "indexed": false,
          "internalType": "uint256",
          "name": "id",
          "type": "uint256"
        },
        {
          "indexed": false,
          "internalType": "string",
          "name": "name",
          "type": "string"
        },
        {
          "indexed": false,
          "internalType": "uint256",
          "name": "price",
          "type": "uint256"
        },
        {
          "indexed": false,
          "internalType": "uint256",
          "name": "quantity",
          "type": "uint256"
        }
      ],
      "name": "ItemUpdated",
      "type": "event"
    },
    {
      "anonymous": false,
      "inputs": [
        {
          "indexed": false,
          "internalType": "uint256",
          "name": "orderId",
          "type": "uint256"
        }
      ],
      "name": "OrderFulfilled",
      "type": "event"
    },
    {
      "inputs": [
        {
          "internalType": "string",
          "name": "_name",
          "type": "string"
        },
        {
          "internalType": "uint256",
          "name": "_price",
          "type": "uint256"
        },
        {
          "internalType": "uint256",
          "name": "_quantity",
          "type": "uint256"
        }
      ],
      "name": "createItem",
      "outputs": [],
      "stateMutability": "nonpayable",
      "type": "function"
    },
    {
      "inputs": [
        {
          "internalType": "uint256",
          "name": "_id",
          "type": "uint256"
        }
      ],
      "name": "deleteItem",
      "outputs": [],
      "stateMutability": "nonpayable",
      "type": "function"
    },
    {
      "inputs": [
        {
          "internalType": "uint256",
          "name": "_orderId",
          "type": "uint256"
        }
      ],
      "name": "fulfillOrder",
      "outputs": [],
      "stateMutability": "nonpayable",
      "type": "function"
    },
    {
      "inputs": [
        {
          "internalType": "uint256",
          "name": "_orderId",
          "type": "uint256"
        }
      ],
      "name": "getOrderDetails",
      "outputs": [
        {
          "components": [
            {
              "internalType": "uint256",
              "name": "id",
              "type": "uint256"
            },
            {
              "internalType": "uint256",
              "name": "itemId",
              "type": "uint256"
            },
            {
              "internalType": "uint256",
              "name": "quantity",
              "type": "uint256"
            },
            {
              "internalType": "address",
              "name": "buyer",
              "type": "address"
            },
            {
              "internalType": "bool",
              "name": "fulfilled",
              "type": "bool"
            },
            {
              "internalType": "uint256",
              "name": "createdAt",
              "type": "uint256"
            }
          ],
          "internalType": "struct SupplyChain.Order",
          "name": "",
          "type": "tuple"
        }
      ],
      "stateMutability": "view",
      "type": "function"
    },
    {
      "inputs": [],
      "name": "itemCount",
      "outputs": [
        {
          "internalType": "uint256",
          "name": "",
          "type": "uint256"
        }
      ],
      "stateMutability": "view",
      "type": "function"
    },
    {
      "inputs": [
        {
          "internalType": "uint256",
          "name": "",
          "type": "uint256"
        }
      ],
      "name": "items",
      "outputs": [
        {
          "internalType": "uint256",
          "name": "id",
          "type": "uint256"
        },
        {
          "internalType": "string",
          "name": "name",
          "type": "string"
        },
        {
          "internalType": "uint256",
          "name": "price",
          "type": "uint256"
        },
        {
          "internalType": "uint256",
          "name": "quantity",
          "type": "uint256"
        },
        {
          "internalType": "uint256",
          "name": "createdAt",
          "type": "uint256"
        },
        {
          "internalType": "address",
          "name": "owner",
          "type": "address"
        }
      ],
      "stateMutability": "view",
      "type": "function"
    },
    {
      "inputs": [],
      "name": "orderCount",
      "outputs": [
        {
          "internalType": "uint256",
          "name": "",
          "type": "uint256"
        }
      ],
      "stateMutability": "view",
      "type": "function"
    },
    {
      "inputs": [
        {
          "internalType": "uint256",
          "name": "_id",
          "type": "uint256"
        },
        {
          "internalType": "uint256",
          "name": "_quantity",
          "type": "uint256"
        }
      ],
      "name": "orderItem",
      "outputs": [],
      "stateMutability": "payable",
      "type": "function"
    },
    {
      "inputs": [
        {
          "internalType": "uint256",
          "name": "",
          "type": "uint256"
        }
      ],
      "name": "orders",
      "outputs": [
        {
          "internalType": "uint256",
          "name": "id",
          "type": "uint256"
        },
        {
          "internalType": "uint256",
          "name": "itemId",
          "type": "uint256"
        },
        {
          "internalType": "uint256",
          "name": "quantity",
          "type": "uint256"
        },
        {
          "internalType": "address",
          "name": "buyer",
          "type": "address"
        },
        {
          "internalType": "bool",
          "name": "fulfilled",
          "type": "bool"
        },
        {
          "internalType": "uint256",
          "name": "createdAt",
          "type": "uint256"
        }
      ],
      "stateMutability": "view",
      "type": "function"
    },
    {
      "inputs": [
        {
          "internalType": "uint256",
          "name": "_id",
          "type": "uint256"
        },
        {
          "internalType": "string",
          "name": "_name",
          "type": "string"
        },
        {
          "internalType": "uint256",
          "name": "_price",
          "type": "uint256"
        },
        {
          "internalType": "uint256",
          "name": "_quantity",
          "type": "uint256"
        }
      ],
      "name": "updateItem",
      "outputs": [],
      "stateMutability": "nonpayable",
      "type": "function"
    }
  ],
  "bytecode": "0x608060405234801561001057600080fd5b50610e90806100206000396000f3fe6080604052600436106100915760003560e01c806388df39161161005957806388df391614610137578063a85c38ef14610157578063bfb231d2146101ee578063ce16dcc814610220578063ec7dd7bb1461023357600080fd5b8063108155bc146100965780632453ffa8146100b85780636311e830146100e1578063654fc833146101015780636bfb0d0114610121575b600080fd5b3480156100a257600080fd5b506100b66100b1366004610aac565b6102a5565b005b3480156100c457600080fd5b506100ce60035481565b6040519081526020015b60405180910390f35b3480156100ed57600080fd5b506100b66100fc366004610afa565b6103a4565b34801561010d57600080fd5b506100b661011c366004610afa565b6104bc565b34801561012d57600080fd5b506100ce60025481565b34801561014357600080fd5b506100b6610152366004610b13565b610566565b34801561016357600080fd5b506101b6610172366004610afa565b600160208190526000918252604090912080549181015460028201546003830154600490930154919290916001600160a01b03821691600160a01b900460ff169086565b604080519687526020870195909552938501929092526001600160a01b031660608401521515608083015260a082015260c0016100d8565b3480156101fa57600080fd5b5061020e610209366004610afa565b610604565b6040516100d896959493929190610bb0565b6100b661022e366004610bf7565b6106cb565b34801561023f57600080fd5b5061025361024e366004610afa565b6108b0565b6040516100d891908151815260208083015190820152604080830151908201526060808301516001600160a01b03169082015260808083015115159082015260a0918201519181019190915260c00190565b600280549060006102b583610c2f565b90915550506040805160c0810182526002548082526020808301878152838501879052606084018690524260808501523360a0850152600092835290829052929020815181559151909190600182019061030f9082610cd1565b5060408201518160020155606082015181600301556080820151816004015560a08201518160050160006101000a8154816001600160a01b0302191690836001600160a01b031602179055509050507f4d7bbaf3a743aa8e4b6df9211c03de827dd47a422c50a9abb5aadabfc5a678c860025484848433604051610397959493929190610d91565b60405180910390a1505050565b6000811180156103b657506003548111155b6103ff5760405162461bcd60e51b815260206004820152601560248201527427b93232b9103237b2b9903737ba1032bc34b9ba1760591b60448201526064015b60405180910390fd5b60008181526001602052604090206003810154600160a01b900460ff16156104695760405162461bcd60e51b815260206004820152601860248201527f4f7264657220616c72656164792066756c66696c6c65642e000000000000000060448201526064016103f6565b60038101805460ff60a01b1916600160a01b1790556040517fd276fbc5e545783825cac5416bad154c47e39daebf44589255a65b4f56cf3e0e906104b09084815260200190565b60405180910390a15050565b6000811180156104ce57506002548111155b6104ea5760405162461bcd60e51b81526004016103f690610dd0565b60008181526020819052604081208181559061050960018301826109b3565b5060006002820181905560038201819055600482015560050180546001600160a01b03191690556040518181527f3d0be3a3bbdb36b253d40a546d15d6b7f402fc43e4cd4a067af359b0763b6f3c9060200160405180910390a150565b60008411801561057857506002548411155b6105945760405162461bcd60e51b81526004016103f690610dd0565b6000848152602081905260409020600181016105b08582610cd1565b5060028101839055600381018290556040517fa5e7879d7b96ea686acfabf5ebc444a95b3a0bd7b0dab5bd93f9b9b868780404906105f5908790879087908790610dfe565b60405180910390a15050505050565b6000602081905290815260409020805460018201805491929161062690610c48565b80601f016020809104026020016040519081016040528092919081815260200182805461065290610c48565b801561069f5780601f106106745761010080835404028352916020019161069f565b820191906000526020600020905b81548152906001019060200180831161068257829003601f168201915b50505050600283015460038401546004850154600590950154939491939092506001600160a01b031686565b6000821180156106dd57506002548211155b6106f95760405162461bcd60e51b81526004016103f690610dd0565b6000828152602081905260409020600381015482111561075b5760405162461bcd60e51b815260206004820152601b60248201527f4e6f7420656e6f756768206974656d7320617661696c61626c652e000000000060448201526064016103f6565b81816002015461076b9190610e2a565b3410156107b25760405162461bcd60e51b815260206004820152601560248201527424b739bab33334b1b4b2b73a103830bcb6b2b73a1760591b60448201526064016103f6565b818160030160008282546107c69190610e47565b9091555050600380549060006107db83610c2f565b90915550506040805160c081018252600380548083526020808401888152848601888152336060808801828152600060808a018181524260a08c019081529882526001808952918c90209a518b559551908a0155925160028901559151878701805494511515600160a01b026001600160a81b03199095166001600160a01b039092169190911793909317909255925160049095019490945591548451908152918201869052928101919091527f5b45d19c65bf4291864dd1ce929b6ff4b9ab15bd3b35b0904c23566d078ab4479101610397565b6108f46040518060c0016040528060008152602001600081526020016000815260200160006001600160a01b03168152602001600015158152602001600081525090565b60008211801561090657506003548211155b61094a5760405162461bcd60e51b815260206004820152601560248201527427b93232b9103237b2b9903737ba1032bc34b9ba1760591b60448201526064016103f6565b50600090815260016020818152604092839020835160c08101855281548152928101549183019190915260028101549282019290925260038201546001600160a01b0381166060830152600160a01b900460ff161515608082015260049091015460a082015290565b5080546109bf90610c48565b6000825580601f106109cf575050565b601f0160209004906000526020600020908101906109ed91906109f0565b50565b5b80821115610a0557600081556001016109f1565b5090565b634e487b7160e01b600052604160045260246000fd5b600082601f830112610a3057600080fd5b813567ffffffffffffffff80821115610a4b57610a4b610a09565b604051601f8301601f19908116603f01168101908282118183101715610a7357610a73610a09565b81604052838152866020858801011115610a8c57600080fd5b836020870160208301376000602085830101528094505050505092915050565b600080600060608486031215610ac157600080fd5b833567ffffffffffffffff811115610ad857600080fd5b610ae486828701610a1f565b9660208601359650604090950135949350505050565b600060208284031215610b0c57600080fd5b5035919050565b60008060008060808587031215610b2957600080fd5b84359350602085013567ffffffffffffffff811115610b4757600080fd5b610b5387828801610a1f565b949794965050505060408301359260600135919050565b6000815180845260005b81811015610b9057602081850181015186830182015201610b74565b506000602082860101526020601f19601f83011685010191505092915050565b86815260c060208201526000610bc960c0830188610b6a565b604083019690965250606081019390935260808301919091526001600160a01b031660a09091015292915050565b60008060408385031215610c0a57600080fd5b50508035926020909101359150565b634e487b7160e01b600052601160045260246000fd5b600060018201610c4157610c41610c19565b5060010190565b600181811c90821680610c5c57607f821691505b602082108103610c7c57634e487b7160e01b600052602260045260246000fd5b50919050565b601f821115610ccc57600081815260208120601f850160051c81016020861015610ca95750805b601f850160051c820191505b81811015610cc857828155600101610cb5565b5050505b505050565b815167ffffffffffffffff811115610ceb57610ceb610a09565b610cff81610cf98454610c48565b84610c82565b602080601f831160018114610d345760008415610d1c5750858301515b600019600386901b1c1916600185901b178555610cc8565b600085815260208120601f198616915b82811015610d6357888601518255948401946001909101908401610d44565b5085821015610d815787850151600019600388901b60f8161c191681555b5050505050600190811b01905550565b85815260a060208201526000610daa60a0830187610b6a565b60408301959095525060608101929092526001600160a01b031660809091015292915050565b60208082526014908201527324ba32b6903237b2b9903737ba1032bc34b9ba1760611b604082015260600190565b848152608060208201526000610e176080830186610b6a565b6040830194909452506060015292915050565b8082028115828204841417610e4157610e41610c19565b92915050565b81810381811115610e4157610e41610c1956fea26469706673582212209aa54a37ebb98e0dbbff83bb633271032530179c642824adc2fbe045df100c1464736f6c63430008140033",
  "linkReferences": {},
  "deployedLinkReferences": {}
}